:1000000012C02AC029C028C028C026C025C024C0CC
:1000100023C022C021C020C01FC01EC01DC01CC0E4
:100020001BC01AC019C011241FBECFEDCDBF10E0F8
:10003000A0E6B0E0EEE9F1E002C005900D92A03636
:10004000B107D9F710E0A0E6B0E001C01D92A836D4
:10005000B107E1F762D0A1C0D3CF1F920F920FB6C4
:100060000F9211242F933F934F938F939F93C19897
:1000700020E040E43BE18091600090E0281708F424
:1000800091E080916100281708F445C09D7F809120
:1000900062002817F0F19B7F809163002817B8F168
:1000A000977F80916400281780F19F7E8091650082
:1000B000281748F19F7D80916600281710F19F7BDB
:1000C000809167002817D0F4892F8068C4988FB971
:1000D0004EB9769903C03DB9769BFDCF8FB1C49AD6
:1000E0002F5F203841F6C19A9F918F914F913F9198
:1000F0002F910F900FBE0F901F901895892F8F771B
:10010000E5CF9064DDCF9062D6CF9061CFCF98607D
:10011000C8CF9460C1CF9260BACFB89AC09AB99A4A
:10012000C19ABE9ABF9ABD98C59A78942FB7F89491
:100130008EB584608EBD8EB58C7F8EBD8FB58C7F65
:100140008FBD8EB588608EBD8EB58F7E8EBD8FB50E
:100150008F708FBD80E091E09BBD8ABD89B78064C0
:1001600089BF2FBF80E090E02FEFFC01E05AFF4FE6
:100170002083019688309105C1F720E030E040ED02
:1001800057E0CA010197F1F72F5F3F4F83E128380D
:0E0190003807B9F7F894C19AFFCFF894FFCF63
:00000001FF
