:1000000009C021C0F7C09AC01EC01DC087C012C160
:100010001AC019C011241FBECFE9CDBF10E0A0E661
:10002000B0E0ECEBF2E002C005900D92A236B10711
:10003000D9F720E0A2E6B0E001C01D92A736B207D2
:10004000E1F72BD039C1DCCFF8944CD0B4D0BDD07F
:10005000789408950F931F93CF93DF93182F062F53
:10006000EA01681770F0812F809586BFCE0186D097
:100070001F3F71F01F5F0117B0F70AC01150101732
:1000800038F0812F809586BFCE0178D01111F6CF40
:10009000DF91CF911F910F910895D6DFA4D08823CF
:1000A00021F09AD08B32A9F40EC083E079D0C82F0A
:1000B00082E076D096B7482F50E06C2F6095892F5C
:1000C0008095C8DFEBCF86B7882341F386B7815090
:1000D00007C08D3219F786B78F3F01F386B78F5F60
:1000E00086BFDCCF88B3817088BBB89A8FEF86BF9C
:1000F00083B7826083BF83B78A7F83BF8FB58C7FCE
:100100008FBD83B7877F83BF8FB58F738FBD89B74F
:10011000826089BF89B7846089BF08951F920F925A
:100120000FB60F9211248F9386B78E3F08F4C09AB2
:100130008F910F900FBE0F901F9018951F920F92E6
:100140000FB60F9211248F939F938091620090912C
:10015000630001969093630080936200C0989F9122
:100160008F910F900FBE0F901F9018952FB7F89496
:1001700080916200909163002FBF08950F931F93A9
:10018000CF93DF93EC01F2DF8C01F0DF801B910B4A
:100190008C179D07D0F3DF91CF911F910F91089598
:1001A00097B19C7F97B997B1982B97B9369A3699A2
:1001B000FECF85B1089587B3877E87BB379A86B116
:1001C000876086B93D9A3E980895BA98C29AAA9ACD
:1001D0008BB780628BBF0895809164001092640099
:1001E0001092660008959091660081E0911101C01F
:1001F00080E008951F920F920FB60F9211248F93F3
:100200008BB78F7D8BBFB29909C088E088BF89B753
:10021000886089BF82B78E5589BD06C08AB7806263
:100220008ABF8BB780628BBF8F910F900FBE0F90EC
:100230001F9018951F920F920FB60F9211242F93B3
:100240008F939F93809160009FEF980F97FD14C04C
:10025000B29B04C090916500982B05C02091650069
:10026000982F9095922390936500880F809360005B
:1002700082B7845989BD18C089B7877F89BF81E05B
:1002800080936000B29B0AC090916600911106C0F5
:100290009091650090936400809366008AB78062B5
:1002A0008ABF8BB780628BBF9F918F912F910F90E8
:0C02B0000FBE0F901F901895F894FFCF20
:0202BC0001003F
:00000001FF
