:1000000012C02AC029C028C0EDC126C0C4C124C066
:1000100023C022C021C020C01FC01EC01DC01CC0E4
:100020001BC01AC019C011241FBECFEDCDBF10E0F8
:10003000A0E6B0E0EEEAF5E002C005900D92A2382D
:10004000B107D9F710E0A2E8B0E001C01D92AA3ACA
:10005000B107E1F728D0A9C2D3CFCF93DF93582FB0
:10006000492F15C0C081D181A281B3819981119698
:100070008C911197891728F4B183A083D383C2830D
:1000800031E02F5F3296261768F3332349F0615031
:1000900039F0852F942F9C01F90120E030E0F3CF57
:1000A000DF91CF910895EF92FF920F931F93CF931B
:1000B000DF93E2E8F0E020E030E0C901880F991F0B
:1000C000805A9F4F91838083C901880F991F80595F
:1000D0009F4F918B808B2F5F3F4F32962830310599
:1000E00061F78091A20090E044E0880F991F4A9543
:1000F000E1F78E579F4F68E0B0DF8091800090E07D
:1001000034E0880F991F3A95E1F78E579F4F68E0CA
:10011000A4DFB89AC09AB99AC19ABA9AC29ABE9AFA
:10012000BF9ABD98C59A78949FB7F89483B78160B9
:1001300083BF83B7897F83BF80B78C7F80BF83B73E
:10014000877F83BF80B78F7080BF89B7826089BF88
:100150009FBF2FB7F8948EB585608EBD8EB58D7F0D
:100160008EBD8FB58C7F8FBD8EB588608EBD8EB5F0
:100170008F7E8EBD8FB58F708FBD80E890E09BBD68
:100180008ABD89B7806489BF2FBFC29810E020E87C
:10019000E22E01E0FF24F39442C0C0E0D0E0E09101
:1001A0008000F0E093E0EE0FFF1F9A95E1F7EC0F6F
:1001B000FD1FEE0FFF1FE05AFF4F1183809180005B
:1001C00090E0B4E0880F991FBA95E1F78E579F4FE2
:1001D00068E043DF0093A3002196C830D105F9F60B
:1001E0008FB7F8944091A4005091A5006091A600AB
:1001F0007091A7008FBF2FB7F8948091A4009091C1
:10020000A500A091A600B091A7002FBF841B950B5D
:10021000A60BB70B8097A105B10568F31F5F1138D6
:1002200008F4BBCF10E842C0E0918000F0E0A3E00A
:10023000EE0FFF1FAA95E1F7EC0FFD1FEE0FFF1F5A
:10024000E05AFF4F11838091800090E064E0880FB6
:10025000991F6A95E1F78E579F4F68E0FEDEF09296
:10026000A3002196C830D105F9F68FB7F8944091D4
:10027000A4005091A5006091A6007091A7008FBFC7
:100280002FB7F8948091A4009091A500A091A600AA
:10029000B091A7002FBF841B950BA60BB70B8097BF
:1002A000A105B10568F311501F3F19F0C0E0D0E07F
:1002B000BBCFE0918000F0E054E0EE0FFF1F5A95B5
:1002C000E1F7E05AFF4FE1868091800090E044E042
:1002D000880F991F4A95E1F78E579F4F68E0BDDE62
:1002E0000093A3008FB7F8944091A4005091A5000B
:1002F0006091A6007091A7008FBF2FB7F8948091EE
:10030000A4009091A500A091A600B091A7002FBFD6
:10031000841B950BA60BB70B80519742A040B040B1
:1003200060F3E0918000F0E034E0EE0FFF1F3A95BB
:10033000E1F7E05AFF4F11868091800090E024E0C1
:10034000880F991F2A95E1F78E579F4F68E085DE49
:100350000093A3008FB7F8944091A4005091A5009A
:100360006091A6007091A7008FBF2FB7F89480917D
:10037000A4009091A500A091A600B091A7002FBF66
:10038000841B950BA60BB70B80519742A040B04041
:1003900060F310E002CF1F920F920FB60F9211245C
:1003A0008F939F93AF93BF93C19A8091A400909134
:1003B000A500A091A600B091A7000196A11DB11DB6
:1003C0008093A4009093A500A093A600B093A700EB
:1003D000C198BF91AF919F918F910F900FBE0F90D9
:1003E0001F9018951F920F920FB60F9211242F9302
:1003F0003F934F935F936F937F938F939F93AF93AD
:10040000BF93EF93FF93C09AC29A3091A800332311
:1004100009F58091A300813051F49091A200809160
:1004200080008093A200909380001092A300E0913E
:10043000A200F0E054E0EE0FFF1F5A95E1F7EE57EF
:10044000FF4F0190F081E02D818190E09BBD8ABD3E
:1004500081E031C0383091F5E091A200F0E044E055
:10046000EE0FFF1F4A95E1F7EE57FF4F0684F78521
:10047000E02D81E090E0008002C0880F991F0A946F
:10048000E2F72091A900282B2093A900E091A20077
:10049000F0E034E0EE0FFF1F3A95E1F7EE57FF4F23
:1004A0000684F785E02D218180E890E0821B910988
:1004B0009BBD8ABD89E08093A80057C0393039F4CC
:1004C0001092A9001092A8001BBC1ABC4EC0E0916B
:1004D000A200432F50E0BA0161507040F0E023E0E9
:1004E000EE0FFF1F2A95E1F7E60FF71FEE0FFF1F34
:1004F000EE57FF4F0190F081E02D81E090E0008009
:1005000002C0880F991F0A94E2F72091A900282BB6
:100510002093A900E091A200A091A200F0E083E066
:10052000EE0FFF1F8A95E1F7E40FF51FEE0FFF1F97
:10053000EE57FF4F0190F081E02D818190E0B0E017
:10054000E3E0AA0FBB1FEA95E1F7A60FB71FAA0FBA
:10055000BB1FAE57BF4FED91FC912181821B9109CA
:100560009BBD8ABD3F5F3093A800C4988091A900CD
:100570008FB980E48EB98BE101C08DB9769BFDCF38
:100580008FB1C49AC298C098FF91EF91BF91AF917B
:100590009F918F917F916F915F914F913F912F919B
:0E05A0000F900FBE0F901F901895F894FFCF8C
:1005AE000000018002000380040005800600078021
:1005BE000000018002000380040005800600078011
:0205CE0001002A
:00000001FF
