:1000000009C021C020C03CC11EC01DC01CC01BC0F7
:100010001AC019C011241FBECFE9CDBF10E0A0E661
:10002000B0E0E0E2F3E002C005900D92A436B10723
:10003000D9F710E0A4E6B0E001C01D92AA36B107DE
:10004000E1F7C4D06BC1DCCFB89AC098BA98C29A15
:1000500086B386958695809581700895EF92FF927C
:100060000F931F938091600090916100A0916200B6
:10007000B091630071E0E72EF12C012D112DE822E3
:10008000F9220A231B2322273327A9012E193F090E
:10009000400B510B217030704070507DB695A79584
:1000A00097958795282739274A275B272093600053
:1000B000309361004093620050936300B901CA011C
:1000C0001F910F91FF90EF900895CF92DF92EF92E2
:1000D000FF920F931F93CF93DF93EB01142F6901CE
:1000E000082FEE24EA940EC0E0926800C601EBD01F
:1000F00010926800C601E7D0FA94FF20A9F7CE015C
:10010000E2D00150002311F0F12EF7CFDF91CF9113
:100110001F910F91FF90EF90DF90CF9008950F9374
:100120001F93CF93DF93082F162FEA01681750F023
:1001300000936800CE01C7D00F3F69F00F5F101722
:10014000B8F709C000936800CE01BDD0002319F0B4
:1001500001500117B8F7DF91CF911F910F910895CA
:100160001F93CF93DF93EC01162F80E06FEFAE016A
:10017000D6DF8FEF60E0AE01D2DF112311F0115016
:10018000F4CFDF91CF911F9108951F9367DF162F52
:100190006093640063DF292F33274427552780911C
:1001A0006500612F422F50E0BADF58DF892F90E0C1
:1001B0008AD080916400809365001F910895F8941F
:1001C00017BA8FEF88BB4AD0789408951F9380E0C8
:1001D00090E08ED0182FF3DF37DF882371F080E2B4
:1001E0009EE471D031DF882341F01F5F163008F0A4
:1001F00010E080E090E0612F83D0E1DF1230B9F0B1
:10020000133028F4112351F01130C1F70BC0143012
:10021000D9F0143088F0153089F71EC08FEF809325
:100220006800FDCF8BE490E065E09ADFFBCF84EFC0
:1002300091E065E095DFFBCF85E068E873E145E09C
:1002400024EF31E042DFDACF81E060E47FE142E099
:1002500020ED37E03ADFF8CF98DFFECFBB9AC398A6
:1002600083B7816083BF83B7897F83BF8FB58C7F5E
:100270008FBD83B7877F83BF89B7826089BF0895A9
:100280001F920F920FB60F9211248F939F9380911C
:1002900066009091670001969093670080936600D6
:1002A0009091680080916900891710F4C39801C08B
:1002B000C39A8F5F809369009F918F910F900FBEBB
:1002C0000F901F901895BC019FB7F894409166005D
:1002D000509167009FBF8FB7F894209166003091CE
:1002E00067008FBF241B350B26173707A0F308952F
:1002F000E199FECF1FBA8EBBE09A99278DB308957E
:10030000262FE199FECF1CBA1FBA8EBB2DBB0FB6AC
:10031000F894E29AE19A0FBE01960895F894FFCFFF
:04032000CECAEFBE94
:00000001FF
