:1000000014C02CC02BC098C129C028C027C026C04E
:1000100025C024C04FC153C150C154C157C15CC198
:100020005FC166C16DC175C178C111241FBECFE922
:10003000CDBF10E0A0E6B0E0E6EEF3E002C0059030
:100040000D92A236B107D9F710E0A2E6B0E001C0E8
:100050001D92A736B107E1F705D1C3C1D1CF8823DF
:1000600019F4609364000895813019F46093650079
:100070000895823021F460936400609365000895D0
:100080008091600090916100AC0141705070222716
:100090003327241B350B2170307D969587952827B3
:1000A00039273093610020936000C9010895EF92D1
:1000B000FF921F93CF93DF937C011FEF812F8095D9
:1000C0008093640010936500C70160D1112311F083
:1000D0001150F4CFC0E0D0E0C0936500C70156D105
:1000E000219691E0C030D907B9F71FEF1093640053
:1000F000C7014CD1112311F01150F8CFDF91CF91EE
:100100001F91FF90EF900895BF92CF92DF92EF92F0
:10011000FF920F931F93CF93DF93EB01142F79017D
:10012000C82EDD24DA9424C0002339F4D092640070
:10013000C7012CD11092640013C0013029F4D09271
:100140006500C70123D10AC0023061F4D092640077
:10015000D0926500C7011AD1109264001092650018
:10016000C70114D1BA94BB20F9F6CE010FD1CA94BD
:10017000CC2011F0B12EF7CFDF91CF911F910F91CD
:10018000FF90EF90DF90CF90BF900895FF920F9374
:100190001F93CF93DF93082F162FEA01F22E6817D3
:1001A00058F08F2D602F5BDFCE01F0D00F3F71F044
:1001B0000F5F1017B0F70AC08F2D602F50DFCE01F0
:1001C000E5D0002319F001500117B0F7DF91CF916E
:1001D0001F910F91FF900895CF92DF92FF920F939E
:1001E0001F93DF93CF930F92CDB7DEB76C01F090E2
:1001F00064001091650044DF998342DF092F8F2D41
:100200006981A60120E0C2DF812F602FA60121E0D5
:10021000BDDF0F90CF91DF911F910F91FF90DF9085
:10022000CF9008950F931F93CF93DF93EC01062F88
:10023000142F80E06FEFAE01202FA8DF8FEF60E07A
:10024000AE01202FA3DF112311F01150F2CFDF9167
:10025000CF911F910F91089517BA8FEF88BB61D08E
:1002600078940895EF92FF920F931F93CF93DF93AB
:1002700080E090E0A0D0182F81E087BB84E088BBAD
:10028000B29908C01F5F1B3008F010E080E090E0DA
:10029000612F99D0E1DFC12FD0E05AE0E52E50E088
:1002A000F52EEC0EFD1E1FEFCB30D105E8F7EF92D7
:1002B000FF92089510936400F7CF10936400109399
:1002C0006500F2CF8BE490E060E003C08BE490E047
:1002D00061E045E0A7DFE8CF8BE490E062E0F9CF92
:1002E00085E068E873E145E024EF31E000E00FC00D
:1002F00085E068E873E145E024EF31E001E007C004
:1003000085E068E873E145E024EF31E002E0FCDEDF
:10031000CBCF84E690E0CBDEC7CF84E690E05CDF15
:10032000C3CF88E187BB87EE88BB1FBC81E083BF5A
:1003300089B7826089BF08951F920F920FB60F92FE
:1003400011248F939F938091620090916300019696
:1003500090936300809362009091640080916600A6
:10036000891710F4C39801C0C39A9091650089174A
:1003700010F4C49801C0C49A8F5F809366009F9167
:100380008F910F900FBE0F901F901895BC019FB7D3
:10039000F89440916200509163009FBF8FB7F8942A
:1003A00020916200309163008FBF241B350B26170C
:1003B0003707A0F30895E199FECF1FBA8EBBE09AEC
:1003C00099278DB30895262FE199FECF1CBA1FBA45
:1003D0008EBB2DBB0FB6F894E29AE19A0FBE019640
:0603E0000895F894FFCF20
:0203E600EFBE68
:00000001FF
