:1000000009C016C015C065C013C012C011C010C011
:100010000FC00EC011241FBECFE9CDBF10E0A0E677
:10002000B0E001C01D92A236B107E1F718D07DC043
:10003000E7CF1F931FEF16BF80E590E061D011500E
:10004000103CC9F71F910895F894B89A87B3897F37
:1000500087BB88B3866088BB24D078940895F4DF8A
:1000600080E89EE34DD0E5DF86B390E08670907027
:100070008230910561F08430910519F0009779F391
:100080000CC086B7882349F086B7815005C086B773
:100090008F3F19F086B78F5F86BF80EB94E030D03A
:1000A000E3CF83B7816083BF83B7897F83BF8FB579
:1000B00083608FBD83B7877F83BF8FB580688FBD17
:1000C0008FB580648FBD89B7826089BF8FEF86BF8F
:1000D00008951F920F920FB60F9211248F939F9342
:1000E00080916000909161000196909361008093EF
:1000F00060009F918F910F900FBE0F901F901895E9
:10010000BC019FB7F89440916000509161009FBF7F
:100110008FB7F89420916000309161008FBF241B4D
:0E012000350B26173707A0F30895F894FFCF8C
:00000001FF
