:1000000012C02AC029C028C06BC026C025C024C089
:1000100023C022C021C020C01FC01EC01DC01CC0E4
:100020001BC01AC019C011241FBECFEDCDBF10E0F8
:10003000A0E6B0E0EEE8F1E002C005900D92A03637
:10004000B107D9F710E0A0E6B0E001C01D92A836D4
:10005000B107E1F741D099C0D3CF2FB7F8948EB54F
:1000600084608EBD8EB58C7F8EBD8FB58C7F8FBD2D
:100070008EB588608EBD8EB58F7E8EBD8FB58F702C
:100080008FBD80E091E09BBD8ABD89B7806489BF48
:100090002FBF0895B89AC09AB99AC19ABE9ABF9ACA
:1000A000BD98C59A7894D9DF80E090E02FEFFC01ED
:1000B000E05AFF4F2083019688309105C1F780E018
:1000C00090E020ED37E0F9013197F1F7019643E137
:1000D00088389407C1F70895DDDFF894C19AFFCFFF
:1000E0001F920F920FB60F9211242F933F934F93AD
:1000F0005F936F937F938F939F93AF93BF93EF9390
:10010000FF93C19850E061E070E0B0E4ABE140E003
:1001100020E030E0F901E05AFF4F8081581748F4A1
:10012000CB01022E02C0880F991F0A94E2F7482BD8
:1001300009C0CB01022E02C0880F991F0A94E2F772
:10014000809548232F5F3F4F2830310519F7C49819
:100150004FB9BEB901C0ADB9769BFDCF8FB1C49A7E
:100160005F5F5038A1F6C19AFF91EF91BF91AF91B7
:100170009F918F917F916F915F914F913F912F91BF
:0E0180000F900FBE0F901F901895F894FFCFB0
:00000001FF
